{
    "contractName": "Land",
    "abi": [
        {
            "inputs": [],
            "stateMutability": "nonpayable",
            "type": "constructor"
        },
        {
            "anonymous": false,
            "inputs": [
                {
                    "indexed": true,
                    "internalType": "uint256",
                    "name": "_landId",
                    "type": "uint256"
                }
            ],
            "name": "AddingLand",
            "type": "event"
        },
        {
            "anonymous": false,
            "inputs": [
                {
                    "indexed": false,
                    "internalType": "address",
                    "name": "_sellerId",
                    "type": "address"
                }
            ],
            "name": "Landrequested",
            "type": "event"
        },
        {
            "anonymous": false,
            "inputs": [
                {
                    "indexed": false,
                    "internalType": "address",
                    "name": "_registrationId",
                    "type": "address"
                }
            ],
            "name": "Registration",
            "type": "event"
        },
        {
            "anonymous": false,
            "inputs": [
                {
                    "indexed": false,
                    "internalType": "address",
                    "name": "_id",
                    "type": "address"
                }
            ],
            "name": "Rejected",
            "type": "event"
        },
        {
            "anonymous": false,
            "inputs": [
                {
                    "indexed": false,
                    "internalType": "address",
                    "name": "_id",
                    "type": "address"
                }
            ],
            "name": "Verified",
            "type": "event"
        },
        {
            "anonymous": false,
            "inputs": [
                {
                    "indexed": false,
                    "internalType": "address",
                    "name": "_buyerId",
                    "type": "address"
                }
            ],
            "name": "requestApproved",
            "type": "event"
        },
        {
            "inputs": [
                {
                    "internalType": "address",
                    "name": "",
                    "type": "address"
                }
            ],
            "name": "BuyerMapping",
            "outputs": [
                {
                    "internalType": "address",
                    "name": "id",
                    "type": "address"
                },
                {
                    "internalType": "string",
                    "name": "name",
                    "type": "string"
                },
                {
                    "internalType": "uint256",
                    "name": "age",
                    "type": "uint256"
                },
                {
                    "internalType": "string",
                    "name": "city",
                    "type": "string"
                },
                {
                    "internalType": "string",
                    "name": "aadharNumber",
                    "type": "string"
                },
                {
                    "internalType": "string",
                    "name": "panNumber",
                    "type": "string"
                },
                {
                    "internalType": "string",
                    "name": "document",
                    "type": "string"
                },
                {
                    "internalType": "string",
                    "name": "email",
                    "type": "string"
                }
            ],
            "stateMutability": "view",
            "type": "function"
        },
        {
            "inputs": [
                {
                    "internalType": "address",
                    "name": "",
                    "type": "address"
                }
            ],
            "name": "BuyerRejection",
            "outputs": [
                {
                    "internalType": "bool",
                    "name": "",
                    "type": "bool"
                }
            ],
            "stateMutability": "view",
            "type": "function"
        },
        {
            "inputs": [
                {
                    "internalType": "address",
                    "name": "",
                    "type": "address"
                }
            ],
            "name": "BuyerVerification",
            "outputs": [
                {
                    "internalType": "bool",
                    "name": "",
                    "type": "bool"
                }
            ],
            "stateMutability": "view",
            "type": "function"
        },
        {
            "inputs": [
                {
                    "internalType": "uint256",
                    "name": "",
                    "type": "uint256"
                }
            ],
            "name": "InspectorMapping",
            "outputs": [
                {
                    "internalType": "uint256",
                    "name": "id",
                    "type": "uint256"
                },
                {
                    "internalType": "string",
                    "name": "name",
                    "type": "string"
                },
                {
                    "internalType": "uint256",
                    "name": "age",
                    "type": "uint256"
                },
                {
                    "internalType": "string",
                    "name": "designation",
                    "type": "string"
                }
            ],
            "stateMutability": "view",
            "type": "function"
        },
        {
            "inputs": [
                {
                    "internalType": "uint256",
                    "name": "",
                    "type": "uint256"
                }
            ],
            "name": "LandOwner",
            "outputs": [
                {
                    "internalType": "address",
                    "name": "",
                    "type": "address"
                }
            ],
            "stateMutability": "view",
            "type": "function"
        },
        {
            "inputs": [
                {
                    "internalType": "uint256",
                    "name": "",
                    "type": "uint256"
                }
            ],
            "name": "LandVerification",
            "outputs": [
                {
                    "internalType": "bool",
                    "name": "",
                    "type": "bool"
                }
            ],
            "stateMutability": "view",
            "type": "function"
        },
        {
            "inputs": [],
            "name": "Land_Inspector",
            "outputs": [
                {
                    "internalType": "address",
                    "name": "",
                    "type": "address"
                }
            ],
            "stateMutability": "view",
            "type": "function"
        },
        {
            "inputs": [
                {
                    "internalType": "uint256",
                    "name": "",
                    "type": "uint256"
                }
            ],
            "name": "PaymentReceived",
            "outputs": [
                {
                    "internalType": "bool",
                    "name": "",
                    "type": "bool"
                }
            ],
            "stateMutability": "view",
            "type": "function"
        },
        {
            "inputs": [
                {
                    "internalType": "address",
                    "name": "",
                    "type": "address"
                }
            ],
            "name": "RegisteredAddressMapping",
            "outputs": [
                {
                    "internalType": "bool",
                    "name": "",
                    "type": "bool"
                }
            ],
            "stateMutability": "view",
            "type": "function"
        },
        {
            "inputs": [
                {
                    "internalType": "address",
                    "name": "",
                    "type": "address"
                }
            ],
            "name": "RegisteredBuyerMapping",
            "outputs": [
                {
                    "internalType": "bool",
                    "name": "",
                    "type": "bool"
                }
            ],
            "stateMutability": "view",
            "type": "function"
        },
        {
            "inputs": [
                {
                    "internalType": "address",
                    "name": "",
                    "type": "address"
                }
            ],
            "name": "RegisteredSellerMapping",
            "outputs": [
                {
                    "internalType": "bool",
                    "name": "",
                    "type": "bool"
                }
            ],
            "stateMutability": "view",
            "type": "function"
        },
        {
            "inputs": [
                {
                    "internalType": "uint256",
                    "name": "",
                    "type": "uint256"
                }
            ],
            "name": "RequestStatus",
            "outputs": [
                {
                    "internalType": "bool",
                    "name": "",
                    "type": "bool"
                }
            ],
            "stateMutability": "view",
            "type": "function"
        },
        {
            "inputs": [
                {
                    "internalType": "uint256",
                    "name": "",
                    "type": "uint256"
                }
            ],
            "name": "RequestedLands",
            "outputs": [
                {
                    "internalType": "bool",
                    "name": "",
                    "type": "bool"
                }
            ],
            "stateMutability": "view",
            "type": "function"
        },
        {
            "inputs": [
                {
                    "internalType": "uint256",
                    "name": "",
                    "type": "uint256"
                }
            ],
            "name": "RequestsMapping",
            "outputs": [
                {
                    "internalType": "uint256",
                    "name": "reqId",
                    "type": "uint256"
                },
                {
                    "internalType": "address",
                    "name": "sellerId",
                    "type": "address"
                },
                {
                    "internalType": "address",
                    "name": "buyerId",
                    "type": "address"
                },
                {
                    "internalType": "uint256",
                    "name": "landId",
                    "type": "uint256"
                }
            ],
            "stateMutability": "view",
            "type": "function"
        },
        {
            "inputs": [
                {
                    "internalType": "address",
                    "name": "",
                    "type": "address"
                }
            ],
            "name": "SellerMapping",
            "outputs": [
                {
                    "internalType": "address",
                    "name": "id",
                    "type": "address"
                },
                {
                    "internalType": "string",
                    "name": "name",
                    "type": "string"
                },
                {
                    "internalType": "uint256",
                    "name": "age",
                    "type": "uint256"
                },
                {
                    "internalType": "string",
                    "name": "aadharNumber",
                    "type": "string"
                },
                {
                    "internalType": "string",
                    "name": "panNumber",
                    "type": "string"
                },
                {
                    "internalType": "string",
                    "name": "landsOwned",
                    "type": "string"
                },
                {
                    "internalType": "string",
                    "name": "document",
                    "type": "string"
                }
            ],
            "stateMutability": "view",
            "type": "function"
        },
        {
            "inputs": [
                {
                    "internalType": "address",
                    "name": "",
                    "type": "address"
                }
            ],
            "name": "SellerRejection",
            "outputs": [
                {
                    "internalType": "bool",
                    "name": "",
                    "type": "bool"
                }
            ],
            "stateMutability": "view",
            "type": "function"
        },
        {
            "inputs": [
                {
                    "internalType": "address",
                    "name": "",
                    "type": "address"
                }
            ],
            "name": "SellerVerification",
            "outputs": [
                {
                    "internalType": "bool",
                    "name": "",
                    "type": "bool"
                }
            ],
            "stateMutability": "view",
            "type": "function"
        },
        {
            "inputs": [
                {
                    "internalType": "uint256",
                    "name": "",
                    "type": "uint256"
                }
            ],
            "name": "buyers",
            "outputs": [
                {
                    "internalType": "address",
                    "name": "",
                    "type": "address"
                }
            ],
            "stateMutability": "view",
            "type": "function"
        },
        {
            "inputs": [],
            "name": "buyersCount",
            "outputs": [
                {
                    "internalType": "uint256",
                    "name": "",
                    "type": "uint256"
                }
            ],
            "stateMutability": "view",
            "type": "function"
        },
        {
            "inputs": [],
            "name": "inspectorsCount",
            "outputs": [
                {
                    "internalType": "uint256",
                    "name": "",
                    "type": "uint256"
                }
            ],
            "stateMutability": "view",
            "type": "function"
        },
        {
            "inputs": [
                {
                    "internalType": "uint256",
                    "name": "",
                    "type": "uint256"
                }
            ],
            "name": "lands",
            "outputs": [
                {
                    "internalType": "uint256",
                    "name": "id",
                    "type": "uint256"
                },
                {
                    "internalType": "uint256",
                    "name": "area",
                    "type": "uint256"
                },
                {
                    "internalType": "string",
                    "name": "city",
                    "type": "string"
                },
                {
                    "internalType": "string",
                    "name": "state",
                    "type": "string"
                },
                {
                    "internalType": "uint256",
                    "name": "landPrice",
                    "type": "uint256"
                },
                {
                    "internalType": "uint256",
                    "name": "propertyPID",
                    "type": "uint256"
                },
                {
                    "internalType": "uint256",
                    "name": "physicalSurveyNumber",
                    "type": "uint256"
                },
                {
                    "internalType": "string",
                    "name": "ipfsHash",
                    "type": "string"
                },
                {
                    "internalType": "string",
                    "name": "document",
                    "type": "string"
                }
            ],
            "stateMutability": "view",
            "type": "function"
        },
        {
            "inputs": [],
            "name": "landsCount",
            "outputs": [
                {
                    "internalType": "uint256",
                    "name": "",
                    "type": "uint256"
                }
            ],
            "stateMutability": "view",
            "type": "function"
        },
        {
            "inputs": [],
            "name": "requestsCount",
            "outputs": [
                {
                    "internalType": "uint256",
                    "name": "",
                    "type": "uint256"
                }
            ],
            "stateMutability": "view",
            "type": "function"
        },
        {
            "inputs": [
                {
                    "internalType": "uint256",
                    "name": "",
                    "type": "uint256"
                }
            ],
            "name": "sellers",
            "outputs": [
                {
                    "internalType": "address",
                    "name": "",
                    "type": "address"
                }
            ],
            "stateMutability": "view",
            "type": "function"
        },
        {
            "inputs": [],
            "name": "sellersCount",
            "outputs": [
                {
                    "internalType": "uint256",
                    "name": "",
                    "type": "uint256"
                }
            ],
            "stateMutability": "view",
            "type": "function"
        },
        {
            "inputs": [],
            "name": "getLandsCount",
            "outputs": [
                {
                    "internalType": "uint256",
                    "name": "",
                    "type": "uint256"
                }
            ],
            "stateMutability": "view",
            "type": "function"
        },
        {
            "inputs": [],
            "name": "getBuyersCount",
            "outputs": [
                {
                    "internalType": "uint256",
                    "name": "",
                    "type": "uint256"
                }
            ],
            "stateMutability": "view",
            "type": "function"
        },
        {
            "inputs": [],
            "name": "getSellersCount",
            "outputs": [
                {
                    "internalType": "uint256",
                    "name": "",
                    "type": "uint256"
                }
            ],
            "stateMutability": "view",
            "type": "function"
        },
        {
            "inputs": [],
            "name": "getRequestsCount",
            "outputs": [
                {
                    "internalType": "uint256",
                    "name": "",
                    "type": "uint256"
                }
            ],
            "stateMutability": "view",
            "type": "function"
        },
        {
            "inputs": [
                {
                    "internalType": "uint256",
                    "name": "i",
                    "type": "uint256"
                }
            ],
            "name": "getArea",
            "outputs": [
                {
                    "internalType": "uint256",
                    "name": "",
                    "type": "uint256"
                }
            ],
            "stateMutability": "view",
            "type": "function"
        },
        {
            "inputs": [
                {
                    "internalType": "uint256",
                    "name": "i",
                    "type": "uint256"
                }
            ],
            "name": "getCity",
            "outputs": [
                {
                    "internalType": "string",
                    "name": "",
                    "type": "string"
                }
            ],
            "stateMutability": "view",
            "type": "function"
        },
        {
            "inputs": [
                {
                    "internalType": "uint256",
                    "name": "i",
                    "type": "uint256"
                }
            ],
            "name": "getState",
            "outputs": [
                {
                    "internalType": "string",
                    "name": "",
                    "type": "string"
                }
            ],
            "stateMutability": "view",
            "type": "function"
        },
        {
            "inputs": [
                {
                    "internalType": "uint256",
                    "name": "i",
                    "type": "uint256"
                }
            ],
            "name": "getPrice",
            "outputs": [
                {
                    "internalType": "uint256",
                    "name": "",
                    "type": "uint256"
                }
            ],
            "stateMutability": "view",
            "type": "function"
        },
        {
            "inputs": [
                {
                    "internalType": "uint256",
                    "name": "i",
                    "type": "uint256"
                }
            ],
            "name": "getPID",
            "outputs": [
                {
                    "internalType": "uint256",
                    "name": "",
                    "type": "uint256"
                }
            ],
            "stateMutability": "view",
            "type": "function"
        },
        {
            "inputs": [
                {
                    "internalType": "uint256",
                    "name": "i",
                    "type": "uint256"
                }
            ],
            "name": "getSurveyNumber",
            "outputs": [
                {
                    "internalType": "uint256",
                    "name": "",
                    "type": "uint256"
                }
            ],
            "stateMutability": "view",
            "type": "function"
        },
        {
            "inputs": [
                {
                    "internalType": "uint256",
                    "name": "i",
                    "type": "uint256"
                }
            ],
            "name": "getImage",
            "outputs": [
                {
                    "internalType": "string",
                    "name": "",
                    "type": "string"
                }
            ],
            "stateMutability": "view",
            "type": "function"
        },
        {
            "inputs": [
                {
                    "internalType": "uint256",
                    "name": "i",
                    "type": "uint256"
                }
            ],
            "name": "getDocument",
            "outputs": [
                {
                    "internalType": "string",
                    "name": "",
                    "type": "string"
                }
            ],
            "stateMutability": "view",
            "type": "function"
        },
        {
            "inputs": [
                {
                    "internalType": "uint256",
                    "name": "id",
                    "type": "uint256"
                }
            ],
            "name": "getLandOwner",
            "outputs": [
                {
                    "internalType": "address",
                    "name": "",
                    "type": "address"
                }
            ],
            "stateMutability": "view",
            "type": "function"
        },
        {
            "inputs": [
                {
                    "internalType": "address",
                    "name": "_sellerId",
                    "type": "address"
                }
            ],
            "name": "verifySeller",
            "outputs": [],
            "stateMutability": "nonpayable",
            "type": "function"
        },
        {
            "inputs": [
                {
                    "internalType": "address",
                    "name": "_sellerId",
                    "type": "address"
                }
            ],
            "name": "rejectSeller",
            "outputs": [],
            "stateMutability": "nonpayable",
            "type": "function"
        },
        {
            "inputs": [
                {
                    "internalType": "address",
                    "name": "_buyerId",
                    "type": "address"
                }
            ],
            "name": "verifyBuyer",
            "outputs": [],
            "stateMutability": "nonpayable",
            "type": "function"
        },
        {
            "inputs": [
                {
                    "internalType": "address",
                    "name": "_buyerId",
                    "type": "address"
                }
            ],
            "name": "rejectBuyer",
            "outputs": [],
            "stateMutability": "nonpayable",
            "type": "function"
        },
        {
            "inputs": [
                {
                    "internalType": "uint256",
                    "name": "_landId",
                    "type": "uint256"
                }
            ],
            "name": "verifyLand",
            "outputs": [],
            "stateMutability": "nonpayable",
            "type": "function"
        },
        {
            "inputs": [
                {
                    "internalType": "uint256",
                    "name": "_id",
                    "type": "uint256"
                }
            ],
            "name": "isLandVerified",
            "outputs": [
                {
                    "internalType": "bool",
                    "name": "",
                    "type": "bool"
                }
            ],
            "stateMutability": "view",
            "type": "function"
        },
        {
            "inputs": [
                {
                    "internalType": "address",
                    "name": "_id",
                    "type": "address"
                }
            ],
            "name": "isVerified",
            "outputs": [
                {
                    "internalType": "bool",
                    "name": "",
                    "type": "bool"
                }
            ],
            "stateMutability": "view",
            "type": "function"
        },
        {
            "inputs": [
                {
                    "internalType": "address",
                    "name": "_id",
                    "type": "address"
                }
            ],
            "name": "isRejected",
            "outputs": [
                {
                    "internalType": "bool",
                    "name": "",
                    "type": "bool"
                }
            ],
            "stateMutability": "view",
            "type": "function"
        },
        {
            "inputs": [
                {
                    "internalType": "address",
                    "name": "_id",
                    "type": "address"
                }
            ],
            "name": "isSeller",
            "outputs": [
                {
                    "internalType": "bool",
                    "name": "",
                    "type": "bool"
                }
            ],
            "stateMutability": "view",
            "type": "function"
        },
        {
            "inputs": [
                {
                    "internalType": "address",
                    "name": "_id",
                    "type": "address"
                }
            ],
            "name": "isLandInspector",
            "outputs": [
                {
                    "internalType": "bool",
                    "name": "",
                    "type": "bool"
                }
            ],
            "stateMutability": "view",
            "type": "function"
        },
        {
            "inputs": [
                {
                    "internalType": "address",
                    "name": "_id",
                    "type": "address"
                }
            ],
            "name": "isBuyer",
            "outputs": [
                {
                    "internalType": "bool",
                    "name": "",
                    "type": "bool"
                }
            ],
            "stateMutability": "view",
            "type": "function"
        },
        {
            "inputs": [
                {
                    "internalType": "address",
                    "name": "_id",
                    "type": "address"
                }
            ],
            "name": "isRegistered",
            "outputs": [
                {
                    "internalType": "bool",
                    "name": "",
                    "type": "bool"
                }
            ],
            "stateMutability": "view",
            "type": "function"
        },
        {
            "inputs": [
                {
                    "internalType": "uint256",
                    "name": "_area",
                    "type": "uint256"
                },
                {
                    "internalType": "string",
                    "name": "_city",
                    "type": "string"
                },
                {
                    "internalType": "string",
                    "name": "_state",
                    "type": "string"
                },
                {
                    "internalType": "uint256",
                    "name": "landPrice",
                    "type": "uint256"
                },
                {
                    "internalType": "uint256",
                    "name": "_propertyPID",
                    "type": "uint256"
                },
                {
                    "internalType": "uint256",
                    "name": "_surveyNum",
                    "type": "uint256"
                },
                {
                    "internalType": "string",
                    "name": "_ipfsHash",
                    "type": "string"
                },
                {
                    "internalType": "string",
                    "name": "_document",
                    "type": "string"
                }
            ],
            "name": "addLand",
            "outputs": [],
            "stateMutability": "nonpayable",
            "type": "function"
        },
        {
            "inputs": [
                {
                    "internalType": "string",
                    "name": "_name",
                    "type": "string"
                },
                {
                    "internalType": "uint256",
                    "name": "_age",
                    "type": "uint256"
                },
                {
                    "internalType": "string",
                    "name": "_aadharNumber",
                    "type": "string"
                },
                {
                    "internalType": "string",
                    "name": "_panNumber",
                    "type": "string"
                },
                {
                    "internalType": "string",
                    "name": "_landsOwned",
                    "type": "string"
                },
                {
                    "internalType": "string",
                    "name": "_document",
                    "type": "string"
                }
            ],
            "name": "registerSeller",
            "outputs": [],
            "stateMutability": "nonpayable",
            "type": "function"
        },
        {
            "inputs": [
                {
                    "internalType": "string",
                    "name": "_name",
                    "type": "string"
                },
                {
                    "internalType": "uint256",
                    "name": "_age",
                    "type": "uint256"
                },
                {
                    "internalType": "string",
                    "name": "_aadharNumber",
                    "type": "string"
                },
                {
                    "internalType": "string",
                    "name": "_panNumber",
                    "type": "string"
                },
                {
                    "internalType": "string",
                    "name": "_landsOwned",
                    "type": "string"
                }
            ],
            "name": "updateSeller",
            "outputs": [],
            "stateMutability": "nonpayable",
            "type": "function"
        },
        {
            "inputs": [],
            "name": "getSeller",
            "outputs": [
                {
                    "internalType": "address[]",
                    "name": "",
                    "type": "address[]"
                }
            ],
            "stateMutability": "view",
            "type": "function"
        },
        {
            "inputs": [
                {
                    "internalType": "address",
                    "name": "i",
                    "type": "address"
                }
            ],
            "name": "getSellerDetails",
            "outputs": [
                {
                    "internalType": "string",
                    "name": "",
                    "type": "string"
                },
                {
                    "internalType": "uint256",
                    "name": "",
                    "type": "uint256"
                },
                {
                    "internalType": "string",
                    "name": "",
                    "type": "string"
                },
                {
                    "internalType": "string",
                    "name": "",
                    "type": "string"
                },
                {
                    "internalType": "string",
                    "name": "",
                    "type": "string"
                },
                {
                    "internalType": "string",
                    "name": "",
                    "type": "string"
                }
            ],
            "stateMutability": "view",
            "type": "function"
        },
        {
            "inputs": [
                {
                    "internalType": "string",
                    "name": "_name",
                    "type": "string"
                },
                {
                    "internalType": "uint256",
                    "name": "_age",
                    "type": "uint256"
                },
                {
                    "internalType": "string",
                    "name": "_city",
                    "type": "string"
                },
                {
                    "internalType": "string",
                    "name": "_aadharNumber",
                    "type": "string"
                },
                {
                    "internalType": "string",
                    "name": "_panNumber",
                    "type": "string"
                },
                {
                    "internalType": "string",
                    "name": "_document",
                    "type": "string"
                },
                {
                    "internalType": "string",
                    "name": "_email",
                    "type": "string"
                }
            ],
            "name": "registerBuyer",
            "outputs": [],
            "stateMutability": "nonpayable",
            "type": "function"
        },
        {
            "inputs": [
                {
                    "internalType": "string",
                    "name": "_name",
                    "type": "string"
                },
                {
                    "internalType": "uint256",
                    "name": "_age",
                    "type": "uint256"
                },
                {
                    "internalType": "string",
                    "name": "_city",
                    "type": "string"
                },
                {
                    "internalType": "string",
                    "name": "_aadharNumber",
                    "type": "string"
                },
                {
                    "internalType": "string",
                    "name": "_email",
                    "type": "string"
                },
                {
                    "internalType": "string",
                    "name": "_panNumber",
                    "type": "string"
                }
            ],
            "name": "updateBuyer",
            "outputs": [],
            "stateMutability": "nonpayable",
            "type": "function"
        },
        {
            "inputs": [],
            "name": "getBuyer",
            "outputs": [
                {
                    "internalType": "address[]",
                    "name": "",
                    "type": "address[]"
                }
            ],
            "stateMutability": "view",
            "type": "function"
        },
        {
            "inputs": [
                {
                    "internalType": "address",
                    "name": "i",
                    "type": "address"
                }
            ],
            "name": "getBuyerDetails",
            "outputs": [
                {
                    "internalType": "string",
                    "name": "",
                    "type": "string"
                },
                {
                    "internalType": "string",
                    "name": "",
                    "type": "string"
                },
                {
                    "internalType": "string",
                    "name": "",
                    "type": "string"
                },
                {
                    "internalType": "string",
                    "name": "",
                    "type": "string"
                },
                {
                    "internalType": "string",
                    "name": "",
                    "type": "string"
                },
                {
                    "internalType": "uint256",
                    "name": "",
                    "type": "uint256"
                },
                {
                    "internalType": "string",
                    "name": "",
                    "type": "string"
                }
            ],
            "stateMutability": "view",
            "type": "function"
        },
        {
            "inputs": [
                {
                    "internalType": "address",
                    "name": "_sellerId",
                    "type": "address"
                },
                {
                    "internalType": "uint256",
                    "name": "_landId",
                    "type": "uint256"
                }
            ],
            "name": "requestLand",
            "outputs": [],
            "stateMutability": "nonpayable",
            "type": "function"
        },
        {
            "inputs": [
                {
                    "internalType": "uint256",
                    "name": "i",
                    "type": "uint256"
                }
            ],
            "name": "getRequestDetails",
            "outputs": [
                {
                    "internalType": "address",
                    "name": "",
                    "type": "address"
                },
                {
                    "internalType": "address",
                    "name": "",
                    "type": "address"
                },
                {
                    "internalType": "uint256",
                    "name": "",
                    "type": "uint256"
                },
                {
                    "internalType": "bool",
                    "name": "",
                    "type": "bool"
                }
            ],
            "stateMutability": "view",
            "type": "function"
        },
        {
            "inputs": [
                {
                    "internalType": "uint256",
                    "name": "_id",
                    "type": "uint256"
                }
            ],
            "name": "isRequested",
            "outputs": [
                {
                    "internalType": "bool",
                    "name": "",
                    "type": "bool"
                }
            ],
            "stateMutability": "view",
            "type": "function"
        },
        {
            "inputs": [
                {
                    "internalType": "uint256",
                    "name": "_id",
                    "type": "uint256"
                }
            ],
            "name": "isApproved",
            "outputs": [
                {
                    "internalType": "bool",
                    "name": "",
                    "type": "bool"
                }
            ],
            "stateMutability": "view",
            "type": "function"
        },
        {
            "inputs": [
                {
                    "internalType": "uint256",
                    "name": "_reqId",
                    "type": "uint256"
                }
            ],
            "name": "approveRequest",
            "outputs": [],
            "stateMutability": "nonpayable",
            "type": "function"
        },
        {
            "inputs": [
                {
                    "internalType": "uint256",
                    "name": "_landId",
                    "type": "uint256"
                },
                {
                    "internalType": "address",
                    "name": "_newOwner",
                    "type": "address"
                }
            ],
            "name": "LandOwnershipTransfer",
            "outputs": [],
            "stateMutability": "nonpayable",
            "type": "function"
        },
        {
            "inputs": [
                {
                    "internalType": "uint256",
                    "name": "_landId",
                    "type": "uint256"
                }
            ],
            "name": "isPaid",
            "outputs": [
                {
                    "internalType": "bool",
                    "name": "",
                    "type": "bool"
                }
            ],
            "stateMutability": "view",
            "type": "function"
        },
        {
            "inputs": [
                {
                    "internalType": "address payable",
                    "name": "_receiver",
                    "type": "address"
                },
                {
                    "internalType": "uint256",
                    "name": "_landId",
                    "type": "uint256"
                }
            ],
            "name": "payment",
            "outputs": [],
            "stateMutability": "payable",
            "type": "function"
        }
    ],
    "bytecode": "0x60806040523480156200001157600080fd5b5060118054600160a060020a03191633179055604080518082018252600b81527f496e73706563746f7220310000000000000000000000000000000000000000006020808301919091528251808401909352600e83527f54656873696c204d616e6167657200000000000000000000000000000000000090830152620000a391602d90640100000000620000a9810204565b6200031c565b60158054906000620000bb8362000136565b909155505060408051608081018252601554808252602080830187815283850187905260608401869052600092835260019182905293909120825181559251919291908201906200010d90826200024a565b5060408201516002820155606082015160038201906200012e90826200024a565b505050505050565b60006001820162000170577f4e487b7100000000000000000000000000000000000000000000000000000000600052601160045260246000fd5b5060010190565b7f4e487b7100000000000000000000000000000000000000000000000000000000600052604160045260246000fd5b600281046001821680620001bb57607f821691505b602082108103620001f5577f4e487b7100000000000000000000000000000000000000000000000000000000600052602260045260246000fd5b50919050565b601f82111562000245576000818152602081206020601f86010481016020861015620002245750805b6020601f860104820191505b818110156200012e5782815560010162000230565b505050565b81516001604060020a0381111562000266576200026662000177565b6200027e81620002778454620001a6565b84620001fb565b602080601f831160018114620002ba57600084156200029d5750858301515b60028086026008870290910a60001904198216178655506200012e565b600085815260208120601f198616915b82811015620002eb57888601518255948401946001909101908401620002ca565b50858210156200030c57878501516008601f88160260020a60001904191681555b5050505050600202600101905550565b6137c4806200032c6000396000f3fe608060405260043610610431576000357c010000000000000000000000000000000000000000000000000000000090048063a47d4c0211610245578063dd9d122d11610145578063e7572230116100d8578063f34d4c63116100a7578063f58f85b51161008c578063f58f85b514610e5c578063f9c43bdf14610e8c578063fbfa4b7f14610eac57600080fd5b8063f34d4c6314610db2578063f3f0c21814610e3c57600080fd5b8063e757223014610d2d578063ee95feaf14610d5d578063f0d3a9df14610d7d578063f2aa821814610d9257600080fd5b8063e1ecc79411610114578063e1ecc79414610c88578063e261f1e514610ca8578063e4b2611514610cdd578063e530c40014610d0d57600080fd5b8063dd9d122d14610bf0578063dec091ad14610c05578063def936c314610c38578063e165af8714610c6857600080fd5b8063bed403c7116101d8578063cee26ed5116101a7578063d71306511161018c578063d713065114610b9b578063d7d1bbdb14610bbb578063dbd0e1b614610bdb57600080fd5b8063cee26ed514610b5b578063d1760e6014610b7b57600080fd5b8063bed403c714610adb578063c3c5a54714610afb578063c560b4e514610b1b578063cd392a8314610b3b57600080fd5b8063b0a5dcd311610214578063b0a5dcd3146109f4578063b3c8fe8514610a73578063b9209e3314610aa5578063ba49a08c14610ac557600080fd5b8063a47d4c0214610930578063a4a0f6c014610960578063a6dc41fb14610990578063ab517074146109c057600080fd5b8063601e7c34116103505780637910867b116102e357806393383648116102b2578063989376b411610297578063989376b4146108b45780639ae9711e146108e45780639dc1bfa9146108fa57600080fd5b8063933836481461087e578063941e24261461089e57600080fd5b80637910867b146107de57806383546501146107fe5780638965cde11461082e57806389d213541461084e57600080fd5b806367a09c231161031f57806367a09c23146107585780636814800b1461076b57806368cfe6ee1461078b5780636cbf6cf8146107be57600080fd5b8063601e7c34146106a6578063603daf9a146106d657806363f17143146106f85780636490c7a81461072857600080fd5b80632607aafa116103c857806344c9af281161039757806344c9af281461061657806348a46bd3146106365780634daa9dae146106565780634e2cba091461068657600080fd5b80632607aafa146105945780632a55feec146105c15780633410452a146105e15780633f9b250a146105f657600080fd5b8063170f390911610404578063170f3909146104e05780631869a38b146105185780631a07f76e1461054e5780631c9afd0f1461057e57600080fd5b806307d56ac01461043657806311ce462c14610479578063155fec721461049b57806316d9d666146104cb575b600080fd5b34801561044257600080fd5b50610466610451366004612dad565b60009081526020819052604090206005015490565b6040519081526020015b60405180910390f35b34801561048557600080fd5b50610499610494366004612e82565b610ec2565b005b3480156104a757600080fd5b506104bb6104b6366004612dad565b610fa1565b6040519015158152602001610470565b3480156104d757600080fd5b50601454610466565b3480156104ec57600080fd5b5060115461050090600160a060020a031681565b604051600160a060020a039091168152602001610470565b34801561052457600080fd5b50610500610533366004612dad565b6000908152600d6020526040902054600160a060020a031690565b34801561055a57600080fd5b506104bb610569366004612dad565b60106020526000908152604090205460ff1681565b34801561058a57600080fd5b5061046660145481565b3480156105a057600080fd5b506105b46105af366004612dad565b610fc5565b6040516104709190612fa2565b3480156105cd57600080fd5b506104bb6105dc366004612fd4565b61106a565b3480156105ed57600080fd5b50601854610466565b34801561060257600080fd5b506105b4610611366004612dad565b611093565b34801561062257600080fd5b506105b4610631366004612dad565b6110b3565b34801561064257600080fd5b506104bb610651366004612fd4565b6110d3565b34801561066257600080fd5b506104bb610671366004612dad565b600f6020526000908152604090205460ff1681565b34801561069257600080fd5b506104996106a1366004612ff1565b61111f565b3480156106b257600080fd5b506104bb6106c1366004612fd4565b60066020526000908152604090205460ff1681565b3480156106e257600080fd5b506106eb61130e565b60405161047091906130f1565b34801561070457600080fd5b506104bb610713366004612fd4565b60096020526000908152604090205460ff1681565b34801561073457600080fd5b50610466610743366004612dad565b60009081526020819052604090206001015490565b61049961076636600461313e565b611370565b34801561077757600080fd5b50610499610786366004612fd4565b6113bd565b34801561079757600080fd5b506107ab6107a6366004612fd4565b61142a565b604051610470979695949392919061316a565b3480156107ca57600080fd5b506104bb6107d9366004612dad565b6117d5565b3480156107ea57600080fd5b506104bb6107f9366004612dad565b6117f4565b34801561080a57600080fd5b506104bb610819366004612dad565b600c6020526000908152604090205460ff1681565b34801561083a57600080fd5b50610499610849366004612fd4565b611813565b34801561085a57600080fd5b506104bb610869366004612dad565b600e6020526000908152604090205460ff1681565b34801561088a57600080fd5b50610499610899366004612e82565b611879565b3480156108aa57600080fd5b5061046660155481565b3480156108c057600080fd5b506104bb6108cf366004612fd4565b600b6020526000908152604090205460ff1681565b3480156108f057600080fd5b5061046660165481565b34801561090657600080fd5b50610500610915366004612dad565b600d60205260009081526040902054600160a060020a031681565b34801561093c57600080fd5b506104bb61094b366004612fd4565b60076020526000908152604090205460ff1681565b34801561096c57600080fd5b5061046661097b366004612dad565b60009081526020819052604090206006015490565b34801561099c57600080fd5b506104bb6109ab366004612fd4565b600a6020526000908152604090205460ff1681565b3480156109cc57600080fd5b506109e06109db366004612fd4565b611a4a565b6040516104709897969594939291906131f3565b348015610a0057600080fd5b50610a43610a0f366004612dad565b60046020526000908152604090208054600182015460028301546003909301549192600160a060020a039182169291169084565b6040516104709493929190938452600160a060020a03928316602085015291166040830152606082015260800190565b348015610a7f57600080fd5b50610a93610a8e366004612fd4565b611dc5565b6040516104709695949392919061328f565b348015610ab157600080fd5b506104bb610ac0366004612fd4565b6120dd565b348015610ad157600080fd5b5061046660175481565b348015610ae757600080fd5b50610499610af6366004613303565b612128565b348015610b0757600080fd5b506104bb610b16366004612fd4565b612175565b348015610b2757600080fd5b50610499610b36366004613333565b61219e565b348015610b4757600080fd5b506104bb610b56366004612dad565b612260565b348015610b6757600080fd5b50610500610b76366004612dad565b61227f565b348015610b8757600080fd5b50610499610b96366004612fd4565b6122a9565b348015610ba757600080fd5b506105b4610bb6366004612dad565b61230f565b348015610bc757600080fd5b50610499610bd6366004612dad565b61232f565b348015610be757600080fd5b506106eb61236c565b348015610bfc57600080fd5b50601654610466565b348015610c1157600080fd5b50610c25610c20366004612fd4565b6123cc565b60405161047097969594939291906133ea565b348015610c4457600080fd5b50610c58610c53366004612dad565b6126b9565b6040516104709493929190613460565b348015610c7457600080fd5b506104bb610c83366004612fd4565b6127f1565b348015610c9457600080fd5b50610499610ca3366004612fd4565b612819565b348015610cb457600080fd5b50610cc8610cc3366004612dad565b61287f565b6040516104709998979695949392919061349c565b348015610ce957600080fd5b506104bb610cf8366004612fd4565b60086020526000908152604090205460ff1681565b348015610d1957600080fd5b50610499610d2836600461351b565b612ae6565b348015610d3957600080fd5b50610466610d48366004612dad565b60009081526020819052604090206004015490565b348015610d6957600080fd5b506104bb610d78366004612fd4565b612c2b565b348015610d8957600080fd5b50601754610466565b348015610d9e57600080fd5b50610500610dad366004612dad565b612c54565b348015610dbe57600080fd5b50610e0f610dcd366004612dad565b600090815260046020908152604080832060018101546002820154600390920154600e9094529190932054600160a060020a0391821694919093169260ff1690565b60408051600160a060020a0395861681529490931660208501529183015215156060820152608001610470565b348015610e4857600080fd5b50610499610e5736600461313e565b612c64565b348015610e6857600080fd5b506104bb610e77366004612fd4565b60056020526000908152604090205460ff1681565b348015610e9857600080fd5b50610499610ea7366004612dad565b612d80565b348015610eb857600080fd5b5061046660185481565b3360009081526005602052604090205460ff168015610ef7575033600081815260036020526040902054600160a060020a0316145b610f0057600080fd5b336000908152600360205260409020600101610f1c8782613688565b503360009081526003602081905260409091206002810187905501610f418582613688565b50336000908152600360205260409020600401610f5e8482613688565b50336000908152600360205260409020600701610f7b8382613688565b50336000908152600360205260409020600501610f988282613688565b50505050505050565b6000818152600f602052604081205460ff1615610fc057506001919050565b919050565b6000818152602081905260409020600701805460609190610fe5906135ef565b80601f0160208091040260200160405190810160405280929190818152602001828054611011906135ef565b801561105e5780601f106110335761010080835404028352916020019161105e565b820191906000526020600020905b81548152906001019060200180831161104157829003601f168201915b50505050509050919050565b600160a060020a03811660009081526007602052604081205460ff1615610fc057506001919050565b6000818152602081905260409020600801805460609190610fe5906135ef565b6000818152602081905260409020600301805460609190610fe5906135ef565b600160a060020a03811660009081526009602052604081205460ff16806111125750600160a060020a0382166000908152600b602052604090205460ff165b15610fc057506001919050565b3360009081526005602052604090205460ff161561113c57600080fd5b3360009081526005602090815260408083208054600160ff19918216811790925560079093529083208054909216179055601780549161117b8361374e565b909155505060408051610100810182523380825260208083018b81528385018b9052606084018a90526080840189905260a0840188905260c0840187905260e08401869052600092835260039091529290208151815473ffffffffffffffffffffffffffffffffffffffff1916600160a060020a039091161781559151909190600182019061120a9082613688565b5060408201516002820155606082015160038201906112299082613688565b506080820151600482019061123e9082613688565b5060a082015160058201906112539082613688565b5060c082015160068201906112689082613688565b5060e0820151600782019061127d9082613688565b5050601380546001810182556000919091527f66de8ffda797e3de9c05e8fc57b3bf0ec28a930d40b0d285d93c06501cf6a09001805473ffffffffffffffffffffffffffffffffffffffff1916339081179091556040519081527f478f5152d8fc568db3f8de9fb402fd9d98a1a7541ecfe434e59cf574fbfc5524915060200160405180910390a150505050505050565b6060601380548060200260200160405190810160405280929190818152602001828054801561136657602002820191906000526020600020905b8154600160a060020a03168152600190910190602001808311611348575b5050505050905090565b600081815260106020526040808220805460ff1916600117905551600160a060020a038416913480156108fc02929091818181858888f193505050501580156113b857600080fd5b505050565b6113c6336127f1565b6113cf57600080fd5b600160a060020a0381166000818152600a6020908152604091829020805460ff1916600117905590519182527f6a6455914f452787eb3985452aceedc1000fb545e394eb3b370e3d08958e0a5b91015b60405180910390a150565b600160a060020a03811660009081526003602081905260408220600281015460018201805460609586958695869586959394869493830192600581019260068201926007830192600401908790611480906135ef565b80601f01602080910402602001604051908101604052809291908181526020018280546114ac906135ef565b80156114f95780601f106114ce576101008083540402835291602001916114f9565b820191906000526020600020905b8154815290600101906020018083116114dc57829003601f168201915b5050505050965085805461150c906135ef565b80601f0160208091040260200160405190810160405280929190818152602001828054611538906135ef565b80156115855780601f1061155a57610100808354040283529160200191611585565b820191906000526020600020905b81548152906001019060200180831161156857829003601f168201915b50505050509550848054611598906135ef565b80601f01602080910402602001604051908101604052809291908181526020018280546115c4906135ef565b80156116115780601f106115e657610100808354040283529160200191611611565b820191906000526020600020905b8154815290600101906020018083116115f457829003601f168201915b50505050509450838054611624906135ef565b80601f0160208091040260200160405190810160405280929190818152602001828054611650906135ef565b801561169d5780601f106116725761010080835404028352916020019161169d565b820191906000526020600020905b81548152906001019060200180831161168057829003601f168201915b505050505093508280546116b0906135ef565b80601f01602080910402602001604051908101604052809291908181526020018280546116dc906135ef565b80156117295780601f106116fe57610100808354040283529160200191611729565b820191906000526020600020905b81548152906001019060200180831161170c57829003601f168201915b5050505050925080805461173c906135ef565b80601f0160208091040260200160405190810160405280929190818152602001828054611768906135ef565b80156117b55780601f1061178a576101008083540402835291602001916117b5565b820191906000526020600020905b81548152906001019060200180831161179857829003601f168201915b505050505090509650965096509650965096509650919395979092949650565b6000818152600c602052604081205460ff1615610fc057506001919050565b6000818152600e602052604081205460ff1615610fc057506001919050565b61181c336127f1565b61182557600080fd5b600160a060020a0381166000818152600b6020908152604091829020805460ff1916600117905590519182527faf77f8960cf590e245ec8b6d41c193a5dcacad8986ae4eb57ac9e5be7b6af031910161141f565b3360009081526005602052604090205460ff161561189657600080fd5b3360009081526005602090815260408083208054600160ff1991821681179092556006909352908320805490921617905560168054916118d58361374e565b90915550506040805160e0810182523380825260208083018a81528385018a9052606084018990526080840188905260a0840187905260c08401869052600092835260029091529290208151815473ffffffffffffffffffffffffffffffffffffffff1916600160a060020a039091161781559151909190600182019061195c9082613688565b50604082015160028201556060820151600382019061197b9082613688565b50608082015160048201906119909082613688565b5060a082015160058201906119a59082613688565b5060c082015160068201906119ba9082613688565b5050601280546001810182556000919091527fbb8a6a4669ba250d26cd7a459eca9d215f8307e33aebe50379bc5a3617ec344401805473ffffffffffffffffffffffffffffffffffffffff1916339081179091556040519081527f478f5152d8fc568db3f8de9fb402fd9d98a1a7541ecfe434e59cf574fbfc5524915060200160405180910390a1505050505050565b60036020526000908152604090208054600182018054600160a060020a039092169291611a76906135ef565b80601f0160208091040260200160405190810160405280929190818152602001828054611aa2906135ef565b8015611aef5780601f10611ac457610100808354040283529160200191611aef565b820191906000526020600020905b815481529060010190602001808311611ad257829003601f168201915b505050505090806002015490806003018054611b0a906135ef565b80601f0160208091040260200160405190810160405280929190818152602001828054611b36906135ef565b8015611b835780601f10611b5857610100808354040283529160200191611b83565b820191906000526020600020905b815481529060010190602001808311611b6657829003601f168201915b505050505090806004018054611b98906135ef565b80601f0160208091040260200160405190810160405280929190818152602001828054611bc4906135ef565b8015611c115780601f10611be657610100808354040283529160200191611c11565b820191906000526020600020905b815481529060010190602001808311611bf457829003601f168201915b505050505090806005018054611c26906135ef565b80601f0160208091040260200160405190810160405280929190818152602001828054611c52906135ef565b8015611c9f5780601f10611c7457610100808354040283529160200191611c9f565b820191906000526020600020905b815481529060010190602001808311611c8257829003601f168201915b505050505090806006018054611cb4906135ef565b80601f0160208091040260200160405190810160405280929190818152602001828054611ce0906135ef565b8015611d2d5780601f10611d0257610100808354040283529160200191611d2d565b820191906000526020600020905b815481529060010190602001808311611d1057829003601f168201915b505050505090806007018054611d42906135ef565b80601f0160208091040260200160405190810160405280929190818152602001828054611d6e906135ef565b8015611dbb5780601f10611d9057610100808354040283529160200191611dbb565b820191906000526020600020905b815481529060010190602001808311611d9e57829003601f168201915b5050505050905088565b600160a060020a03811660009081526002602081905260408220908101546001820180546060949385938493849384939192916003810191600482019160058101916006909101908690611e18906135ef565b80601f0160208091040260200160405190810160405280929190818152602001828054611e44906135ef565b8015611e915780601f10611e6657610100808354040283529160200191611e91565b820191906000526020600020905b815481529060010190602001808311611e7457829003601f168201915b50505050509550838054611ea4906135ef565b80601f0160208091040260200160405190810160405280929190818152602001828054611ed0906135ef565b8015611f1d5780601f10611ef257610100808354040283529160200191611f1d565b820191906000526020600020905b815481529060010190602001808311611f0057829003601f168201915b50505050509350828054611f30906135ef565b80601f0160208091040260200160405190810160405280929190818152602001828054611f5c906135ef565b8015611fa95780601f10611f7e57610100808354040283529160200191611fa9565b820191906000526020600020905b815481529060010190602001808311611f8c57829003601f168201915b50505050509250818054611fbc906135ef565b80601f0160208091040260200160405190810160405280929190818152602001828054611fe8906135ef565b80156120355780601f1061200a57610100808354040283529160200191612035565b820191906000526020600020905b81548152906001019060200180831161201857829003601f168201915b50505050509150808054612048906135ef565b80601f0160208091040260200160405190810160405280929190818152602001828054612074906135ef565b80156120c15780601f10612096576101008083540402835291602001916120c1565b820191906000526020600020905b8154815290600101906020018083116120a457829003601f168201915b5050505050905095509550955095509550955091939550919395565b600160a060020a03811660009081526008602052604081205460ff16806111125750600160a060020a0382166000908152600a602052604090205460ff1615610fc057506001919050565b612131336127f1565b61213a57600080fd5b6000918252600d6020526040909120805473ffffffffffffffffffffffffffffffffffffffff1916600160a060020a03909216919091179055565b600160a060020a03811660009081526005602052604081205460ff1615610fc057506001919050565b3360009081526005602052604090205460ff1680156121d3575033600081815260026020526040902054600160a060020a0316145b6121dc57600080fd5b3360009081526002602052604090206001016121f88682613688565b5033600090815260026020819052604090912090810185905560030161221e8482613688565b5033600090815260026020526040902060040161223b8382613688565b503360009081526002602052604090206005016122588282613688565b505050505050565b60008181526010602052604081205460ff1615610fc057506001919050565b6012818154811061228f57600080fd5b600091825260209091200154600160a060020a0316905081565b6122b2336127f1565b6122bb57600080fd5b600160a060020a038116600081815260086020908152604091829020805460ff1916600117905590519182527f6a6455914f452787eb3985452aceedc1000fb545e394eb3b370e3d08958e0a5b910161141f565b6000818152602081905260409020600201805460609190610fe5906135ef565b61233833612c2b565b80156123485750612348336120dd565b61235157600080fd5b6000908152600e60205260409020805460ff19166001179055565b6060601280548060200260200160405190810160405280929190818152602001828054801561136657602002820191906000526020600020908154600160a060020a03168152600190910190602001808311611348575050505050905090565b60026020526000908152604090208054600182018054600160a060020a0390921692916123f8906135ef565b80601f0160208091040260200160405190810160405280929190818152602001828054612424906135ef565b80156124715780601f1061244657610100808354040283529160200191612471565b820191906000526020600020905b81548152906001019060200180831161245457829003601f168201915b50505050509080600201549080600301805461248c906135ef565b80601f01602080910402602001604051908101604052809291908181526020018280546124b8906135ef565b80156125055780601f106124da57610100808354040283529160200191612505565b820191906000526020600020905b8154815290600101906020018083116124e857829003601f168201915b50505050509080600401805461251a906135ef565b80601f0160208091040260200160405190810160405280929190818152602001828054612546906135ef565b80156125935780601f1061256857610100808354040283529160200191612593565b820191906000526020600020905b81548152906001019060200180831161257657829003601f168201915b5050505050908060050180546125a8906135ef565b80601f01602080910402602001604051908101604052809291908181526020018280546125d4906135ef565b80156126215780601f106125f657610100808354040283529160200191612621565b820191906000526020600020905b81548152906001019060200180831161260457829003601f168201915b505050505090806006018054612636906135ef565b80601f0160208091040260200160405190810160405280929190818152602001828054612662906135ef565b80156126af5780601f10612684576101008083540402835291602001916126af565b820191906000526020600020905b81548152906001019060200180831161269257829003601f168201915b5050505050905087565b6001602081905260009182526040909120805491810180546126da906135ef565b80601f0160208091040260200160405190810160405280929190818152602001828054612706906135ef565b80156127535780601f1061272857610100808354040283529160200191612753565b820191906000526020600020905b81548152906001019060200180831161273657829003601f168201915b50505050509080600201549080600301805461276e906135ef565b80601f016020809104026020016040519081016040528092919081815260200182805461279a906135ef565b80156127e75780601f106127bc576101008083540402835291602001916127e7565b820191906000526020600020905b8154815290600101906020018083116127ca57829003601f168201915b5050505050905084565b601154600090600160a060020a0380841691160361281157506001919050565b506000919050565b612822336127f1565b61282b57600080fd5b600160a060020a038116600081815260096020908152604091829020805460ff1916600117905590519182527faf77f8960cf590e245ec8b6d41c193a5dcacad8986ae4eb57ac9e5be7b6af031910161141f565b600060208190529081526040902080546001820154600283018054929391926128a7906135ef565b80601f01602080910402602001604051908101604052809291908181526020018280546128d3906135ef565b80156129205780601f106128f557610100808354040283529160200191612920565b820191906000526020600020905b81548152906001019060200180831161290357829003601f168201915b505050505090806003018054612935906135ef565b80601f0160208091040260200160405190810160405280929190818152602001828054612961906135ef565b80156129ae5780601f10612983576101008083540402835291602001916129ae565b820191906000526020600020905b81548152906001019060200180831161299157829003601f168201915b5050505050908060040154908060050154908060060154908060070180546129d5906135ef565b80601f0160208091040260200160405190810160405280929190818152602001828054612a01906135ef565b8015612a4e5780601f10612a2357610100808354040283529160200191612a4e565b820191906000526020600020905b815481529060010190602001808311612a3157829003601f168201915b505050505090806008018054612a63906135ef565b80601f0160208091040260200160405190810160405280929190818152602001828054612a8f906135ef565b8015612adc5780601f10612ab157610100808354040283529160200191612adc565b820191906000526020600020905b815481529060010190602001808311612abf57829003601f168201915b5050505050905089565b612aef33612c2b565b8015612aff5750612aff336120dd565b612b0857600080fd5b60148054906000612b188361374e565b9091555050604080516101208101825260145480825260208083018c81528385018c8152606085018c9052608085018b905260a085018a905260c0850189905260e085018890526101008501879052600093845291839052939091208251815592516001840155519091906002820190612b929082613688565b5060608201516003820190612ba79082613688565b506080820151600482015560a0820151600582015560c0820151600682015560e08201516007820190612bda9082613688565b506101008201516008820190612bf09082613688565b50506014546000908152600d60205260409020805473ffffffffffffffffffffffffffffffffffffffff191633179055505050505050505050565b600160a060020a03811660009081526006602052604081205460ff1615610fc057506001919050565b6013818154811061228f57600080fd5b612c6d3361106a565b8015612c7d5750612c7d336120dd565b612c8657600080fd5b60188054906000612c968361374e565b90915550506040805160808101825260188054808352600160a060020a03868116602080860182815233878901908152606088018a81526000968752600484528987209851895591516001808a01805492881673ffffffffffffffffffffffffffffffffffffffff19938416179055915160028a018054919097169116179094555160039096019590955583548352600e8552858320805460ff1990811690915593548352600f85529185902080549093161790915591519182527fc67eb70629da758128cec22f7e36ad0676066ad4df9b66e8ba58a30c1ab4075b910160405180910390a15050565b612d89336127f1565b612d9257600080fd5b6000908152600c60205260409020805460ff19166001179055565b600060208284031215612dbf57600080fd5b5035919050565b7f4e487b7100000000000000000000000000000000000000000000000000000000600052604160045260246000fd5b600082601f830112612e0657600080fd5b813567ffffffffffffffff80821115612e2157612e21612dc6565b604051601f8301601f19908116603f01168101908282118183101715612e4957612e49612dc6565b81604052838152866020858801011115612e6257600080fd5b836020870160208301376000602085830101528094505050505092915050565b60008060008060008060c08789031215612e9b57600080fd5b863567ffffffffffffffff80821115612eb357600080fd5b612ebf8a838b01612df5565b9750602089013596506040890135915080821115612edc57600080fd5b612ee88a838b01612df5565b95506060890135915080821115612efe57600080fd5b612f0a8a838b01612df5565b94506080890135915080821115612f2057600080fd5b612f2c8a838b01612df5565b935060a0890135915080821115612f4257600080fd5b50612f4f89828a01612df5565b9150509295509295509295565b6000815180845260005b81811015612f8257602081850181015186830182015201612f66565b506000602082860101526020601f19601f83011685010191505092915050565b602081526000612fb56020830184612f5c565b9392505050565b600160a060020a0381168114612fd157600080fd5b50565b600060208284031215612fe657600080fd5b8135612fb581612fbc565b600080600080600080600060e0888a03121561300c57600080fd5b873567ffffffffffffffff8082111561302457600080fd5b6130308b838c01612df5565b985060208a0135975060408a013591508082111561304d57600080fd5b6130598b838c01612df5565b965060608a013591508082111561306f57600080fd5b61307b8b838c01612df5565b955060808a013591508082111561309157600080fd5b61309d8b838c01612df5565b945060a08a01359150808211156130b357600080fd5b6130bf8b838c01612df5565b935060c08a01359150808211156130d557600080fd5b506130e28a828b01612df5565b91505092959891949750929550565b6020808252825182820181905260009190848201906040850190845b81811015613132578351600160a060020a03168352928401929184019160010161310d565b50909695505050505050565b6000806040838503121561315157600080fd5b823561315c81612fbc565b946020939093013593505050565b60e08152600061317d60e083018a612f5c565b828103602084015261318f818a612f5c565b905082810360408401526131a38189612f5c565b905082810360608401526131b78188612f5c565b905082810360808401526131cb8187612f5c565b90508460a084015282810360c08401526131e58185612f5c565b9a9950505050505050505050565b6000610100600160a060020a038b1683528060208401526132168184018b612f5c565b905088604084015282810360608401526132308189612f5c565b905082810360808401526132448188612f5c565b905082810360a08401526132588187612f5c565b905082810360c084015261326c8186612f5c565b905082810360e08401526132808185612f5c565b9b9a5050505050505050505050565b60c0815260006132a260c0830189612f5c565b87602084015282810360408401526132ba8188612f5c565b905082810360608401526132ce8187612f5c565b905082810360808401526132e28186612f5c565b905082810360a08401526132f68185612f5c565b9998505050505050505050565b6000806040838503121561331657600080fd5b82359150602083013561332881612fbc565b809150509250929050565b600080600080600060a0868803121561334b57600080fd5b853567ffffffffffffffff8082111561336357600080fd5b61336f89838a01612df5565b965060208801359550604088013591508082111561338c57600080fd5b61339889838a01612df5565b945060608801359150808211156133ae57600080fd5b6133ba89838a01612df5565b935060808801359150808211156133d057600080fd5b506133dd88828901612df5565b9150509295509295909350565b600160a060020a038816815260e06020820152600061340c60e0830189612f5c565b87604084015282810360608401526134248188612f5c565b905082810360808401526134388187612f5c565b905082810360a084015261344c8186612f5c565b905082810360c08401526131e58185612f5c565b8481526080602082015260006134796080830186612f5c565b84604084015282810360608401526134918185612f5c565b979650505050505050565b60006101208b83528a60208401528060408401526134bc8184018b612f5c565b905082810360608401526134d0818a612f5c565b90508760808401528660a08401528560c084015282810360e08401526134f68186612f5c565b905082810361010084015261350b8185612f5c565b9c9b505050505050505050505050565b600080600080600080600080610100898b03121561353857600080fd5b88359750602089013567ffffffffffffffff8082111561355757600080fd5b6135638c838d01612df5565b985060408b013591508082111561357957600080fd5b6135858c838d01612df5565b975060608b0135965060808b0135955060a08b0135945060c08b01359150808211156135b057600080fd5b6135bc8c838d01612df5565b935060e08b01359150808211156135d257600080fd5b506135df8b828c01612df5565b9150509295985092959890939650565b60028104600182168061360357607f821691505b60208210810361363c577f4e487b7100000000000000000000000000000000000000000000000000000000600052602260045260246000fd5b50919050565b601f8211156113b8576000818152602081206020601f860104810160208610156136695750805b6020601f860104820191505b8181101561225857828155600101613675565b815167ffffffffffffffff8111156136a2576136a2612dc6565b6136b6816136b084546135ef565b84613642565b602080601f8311600181146136ef57600084156136d35750858301515b60028086026008870290910a6000190419821617865550612258565b600085815260208120601f198616915b8281101561371e578886015182559484019460019091019084016136ff565b508582101561373e57878501516008601f88160260020a60001904191681555b5050505050600202600101905550565b600060018201613787577f4e487b7100000000000000000000000000000000000000000000000000000000600052601160045260246000fd5b506001019056fea26469706673582212206b9f0768f4eecce4ab1691787cd8200d5cf6a3f037fb960ccd1b882e5c97068c64736f6c63430008150033",
    "immutableReferences": {},
    "source": "// SPDX-License-Identifier: MIT\r\npragma solidity 0.8.21;\r\npragma experimental ABIEncoderV2;\r\ncontract Land {\r\n    struct Landreg {\r\n        uint id;\r\n        uint area;\r\n        string city;\r\n        string state;\r\n        uint landPrice;\r\n        uint propertyPID;\r\n        uint physicalSurveyNumber;\r\n        string ipfsHash;\r\n        string document;\r\n    }\r\n\r\n    struct Buyer{\r\n        address id;\r\n        string name;\r\n        uint age;\r\n        string city;\r\n        string aadharNumber;\r\n        string panNumber;\r\n        string document;\r\n        string email;\r\n    }\r\n\r\n    struct Seller{\r\n        address id;\r\n        string name;\r\n        uint age;\r\n        string aadharNumber;\r\n        string panNumber;\r\n        string landsOwned;\r\n        string document;\r\n    }\r\n\r\n    struct LandInspector {\r\n        uint id;\r\n        string name;\r\n        uint age;\r\n        string designation;\r\n    }\r\n\r\n    struct LandRequest{\r\n        uint reqId;\r\n        address sellerId;\r\n        address buyerId;\r\n        uint landId;\r\n        // bool requestStatus;\r\n        // bool requested;\r\n    }\r\n\r\n    //key value pairs\r\n    mapping(uint => Landreg) public lands;\r\n    mapping(uint => LandInspector) public InspectorMapping;\r\n    mapping(address => Seller) public SellerMapping;\r\n    mapping(address => Buyer) public BuyerMapping;\r\n    mapping(uint => LandRequest) public RequestsMapping;\r\n\r\n    mapping(address => bool) public RegisteredAddressMapping;\r\n    mapping(address => bool) public RegisteredSellerMapping;\r\n    mapping(address => bool) public RegisteredBuyerMapping;\r\n    mapping(address => bool) public SellerVerification;\r\n    mapping(address => bool) public SellerRejection;\r\n    mapping(address => bool) public BuyerVerification;\r\n    mapping(address => bool) public BuyerRejection;\r\n    mapping(uint => bool) public LandVerification;\r\n    mapping(uint => address) public LandOwner;\r\n    mapping(uint => bool) public RequestStatus;\r\n    mapping(uint => bool) public RequestedLands;\r\n    mapping(uint => bool) public PaymentReceived;\r\n\r\n    address public Land_Inspector;\r\n    address[] public sellers;\r\n    address[] public buyers;\r\n\r\n    uint public landsCount;\r\n    uint public inspectorsCount;\r\n    uint public sellersCount;\r\n    uint public buyersCount;\r\n    uint public requestsCount;\r\n\r\n    event Registration(address _registrationId);\r\n    event AddingLand(uint indexed _landId);\r\n    event Landrequested(address _sellerId);\r\n    event requestApproved(address _buyerId);\r\n    event Verified(address _id);\r\n    event Rejected(address _id);\r\n\r\n    constructor() public{\r\n        Land_Inspector = msg.sender ;\r\n        addLandInspector(\"Inspector 1\", 45, \"Tehsil Manager\");\r\n    }\r\n\r\n    function addLandInspector(string memory _name, uint _age, string memory _designation) private {\r\n        inspectorsCount++;\r\n        InspectorMapping[inspectorsCount] = LandInspector(inspectorsCount, _name, _age, _designation);\r\n    }\r\n\r\n    function getLandsCount() public view returns (uint) {\r\n        return landsCount;\r\n    }\r\n\r\n    function getBuyersCount() public view returns (uint) {\r\n        return buyersCount;\r\n    }\r\n\r\n    function getSellersCount() public view returns (uint) {\r\n        return sellersCount;\r\n    }\r\n\r\n    function getRequestsCount() public view returns (uint) {\r\n        return requestsCount;\r\n    }\r\n    function getArea(uint i) public view returns (uint) {\r\n        return lands[i].area;\r\n    }\r\n    function getCity(uint i) public view returns (string memory) {\r\n        return lands[i].city;\r\n    }\r\n     function getState(uint i) public view returns (string memory) {\r\n        return lands[i].state;\r\n    }\r\n    // function getStatus(uint i) public view returns (bool) {\r\n    //     return lands[i].verificationStatus;\r\n    // }\r\n    function getPrice(uint i) public view returns (uint) {\r\n        return lands[i].landPrice;\r\n    }\r\n    function getPID(uint i) public view returns (uint) {\r\n        return lands[i].propertyPID;\r\n    }\r\n    function getSurveyNumber(uint i) public view returns (uint) {\r\n        return lands[i].physicalSurveyNumber;\r\n    }\r\n    function getImage(uint i) public view returns (string memory) {\r\n        return lands[i].ipfsHash;\r\n    }\r\n    function getDocument(uint i) public view returns (string memory) {\r\n        return lands[i].document;\r\n    }\r\n    \r\n    function getLandOwner(uint id) public view returns (address) {\r\n        return LandOwner[id];\r\n    }\r\n\r\n    function verifySeller(address _sellerId) public{\r\n        require(isLandInspector(msg.sender));\r\n\r\n        SellerVerification[_sellerId] = true;\r\n        emit Verified(_sellerId);\r\n    }\r\n\r\n    function rejectSeller(address _sellerId) public{\r\n        require(isLandInspector(msg.sender));\r\n\r\n        SellerRejection[_sellerId] = true;\r\n        emit Rejected(_sellerId);\r\n    }\r\n\r\n    function verifyBuyer(address _buyerId) public{\r\n        require(isLandInspector(msg.sender));\r\n\r\n        BuyerVerification[_buyerId] = true;\r\n        emit Verified(_buyerId);\r\n    }\r\n\r\n    function rejectBuyer(address _buyerId) public{\r\n        require(isLandInspector(msg.sender));\r\n\r\n        BuyerRejection[_buyerId] = true;\r\n        emit Rejected(_buyerId);\r\n    }\r\n    \r\n    function verifyLand(uint _landId) public{\r\n        require(isLandInspector(msg.sender));\r\n\r\n        LandVerification[_landId] = true;\r\n    }\r\n\r\n    function isLandVerified(uint _id) public view returns (bool) {\r\n        if(LandVerification[_id]){\r\n            return true;\r\n        }\r\n    }\r\n\r\n    function isVerified(address _id) public view returns (bool) {\r\n        if(SellerVerification[_id] || BuyerVerification[_id]){\r\n            return true;\r\n        }\r\n    }\r\n\r\n    function isRejected(address _id) public view returns (bool) {\r\n        if(SellerRejection[_id] || BuyerRejection[_id]){\r\n            return true;\r\n        }\r\n    }\r\n\r\n    function isSeller(address _id) public view returns (bool) {\r\n        if(RegisteredSellerMapping[_id]){\r\n            return true;\r\n        }\r\n    }\r\n\r\n    function isLandInspector(address _id) public view returns (bool) {\r\n        if(Land_Inspector == _id){\r\n            return true;\r\n        }else{\r\n            return false;\r\n        }\r\n    }\r\n\r\n    function isBuyer(address _id) public view returns (bool) {\r\n        if(RegisteredBuyerMapping[_id]){\r\n            return true;\r\n        }\r\n    }\r\n    function isRegistered(address _id) public view returns (bool) {\r\n        if(RegisteredAddressMapping[_id]){\r\n            return true;\r\n        }\r\n    }\r\n\r\n    function addLand(uint _area, string memory _city,string memory _state, uint landPrice, uint _propertyPID,uint _surveyNum,string memory _ipfsHash, string memory _document) public {\r\n        require((isSeller(msg.sender)) && (isVerified(msg.sender)));\r\n        landsCount++;\r\n        lands[landsCount] = Landreg(landsCount, _area, _city, _state, landPrice,_propertyPID, _surveyNum, _ipfsHash, _document);\r\n        LandOwner[landsCount] = msg.sender;\r\n        // emit AddingLand(landsCount);\r\n    }\r\n\r\n    //registration of seller\r\n    function registerSeller(string memory _name, uint _age, string memory _aadharNumber, string memory _panNumber, string memory _landsOwned, string memory _document) public {\r\n        //require that Seller is not already registered\r\n        require(!RegisteredAddressMapping[msg.sender]);\r\n\r\n        RegisteredAddressMapping[msg.sender] = true;\r\n        RegisteredSellerMapping[msg.sender] = true ;\r\n        sellersCount++;\r\n        SellerMapping[msg.sender] = Seller(msg.sender, _name, _age, _aadharNumber,_panNumber, _landsOwned, _document);\r\n        sellers.push(msg.sender);\r\n        emit Registration(msg.sender);\r\n    }\r\n\r\n    function updateSeller(string memory _name, uint _age, string memory _aadharNumber, string memory _panNumber, string memory _landsOwned) public {\r\n        //require that Seller is already registered\r\n        require(RegisteredAddressMapping[msg.sender] && (SellerMapping[msg.sender].id == msg.sender));\r\n\r\n        SellerMapping[msg.sender].name = _name;\r\n        SellerMapping[msg.sender].age = _age;\r\n        SellerMapping[msg.sender].aadharNumber = _aadharNumber;\r\n        SellerMapping[msg.sender].panNumber = _panNumber;\r\n        SellerMapping[msg.sender].landsOwned = _landsOwned;\r\n\r\n    }\r\n\r\n    function getSeller() public view returns( address [] memory ){\r\n        return(sellers);\r\n    }\r\n\r\n    function getSellerDetails(address i) public view returns (string memory, uint, string memory, string memory, string memory, string memory) {\r\n        return (SellerMapping[i].name, SellerMapping[i].age, SellerMapping[i].aadharNumber, SellerMapping[i].panNumber, SellerMapping[i].landsOwned, SellerMapping[i].document);\r\n    }\r\n\r\n    function registerBuyer(string memory _name, uint _age, string memory _city, string memory _aadharNumber, string memory _panNumber, string memory _document, string memory _email) public {\r\n        //require that Buyer is not already registered\r\n        require(!RegisteredAddressMapping[msg.sender]);\r\n\r\n        RegisteredAddressMapping[msg.sender] = true;\r\n        RegisteredBuyerMapping[msg.sender] = true ;\r\n        buyersCount++;\r\n        BuyerMapping[msg.sender] = Buyer(msg.sender, _name, _age, _city, _aadharNumber, _panNumber, _document, _email);\r\n        buyers.push(msg.sender);\r\n\r\n        emit Registration(msg.sender);\r\n    }\r\n\r\n    function updateBuyer(string memory _name,uint _age, string memory _city,string memory _aadharNumber, string memory _email, string memory _panNumber) public {\r\n        //require that Buyer is already registered\r\n        require(RegisteredAddressMapping[msg.sender] && (BuyerMapping[msg.sender].id == msg.sender));\r\n\r\n        BuyerMapping[msg.sender].name = _name;\r\n        BuyerMapping[msg.sender].age = _age;\r\n        BuyerMapping[msg.sender].city = _city;\r\n        BuyerMapping[msg.sender].aadharNumber = _aadharNumber;\r\n        BuyerMapping[msg.sender].email = _email;\r\n        BuyerMapping[msg.sender].panNumber = _panNumber;\r\n        \r\n    }\r\n\r\n    function getBuyer() public view returns( address [] memory ){\r\n        return(buyers);\r\n    }\r\n\r\n    function getBuyerDetails(address i) public view returns ( string memory,string memory, string memory, string memory, string memory, uint, string memory) {\r\n        return (BuyerMapping[i].name,BuyerMapping[i].city , BuyerMapping[i].panNumber, BuyerMapping[i].document, BuyerMapping[i].email, BuyerMapping[i].age, BuyerMapping[i].aadharNumber);\r\n    }\r\n\r\n\r\n    function requestLand(address _sellerId, uint _landId) public{\r\n        require(isBuyer(msg.sender) && isVerified(msg.sender));\r\n        \r\n        requestsCount++;\r\n        RequestsMapping[requestsCount] = LandRequest(requestsCount, _sellerId, msg.sender, _landId);\r\n        RequestStatus[requestsCount] = false;\r\n        RequestedLands[requestsCount] = true;\r\n\r\n        emit Landrequested(_sellerId);\r\n    }\r\n\r\n    function getRequestDetails (uint i) public view returns (address, address, uint, bool) {\r\n        return(RequestsMapping[i].sellerId, RequestsMapping[i].buyerId, RequestsMapping[i].landId, RequestStatus[i]);\r\n    }\r\n\r\n    function isRequested(uint _id) public view returns (bool) {\r\n        if(RequestedLands[_id]){\r\n            return true;\r\n        }\r\n    }\r\n\r\n    function isApproved(uint _id) public view returns (bool) {\r\n        if(RequestStatus[_id]){\r\n            return true;\r\n        }\r\n    }\r\n\r\n    function approveRequest(uint _reqId) public {\r\n        require((isSeller(msg.sender)) && (isVerified(msg.sender)));\r\n       \r\n        RequestStatus[_reqId] = true;\r\n\r\n    }\r\n\r\n    function LandOwnershipTransfer(uint _landId, address _newOwner) public{\r\n        require(isLandInspector(msg.sender));\r\n\r\n        LandOwner[_landId] = _newOwner;\r\n    }\r\n\r\n    function isPaid(uint _landId) public view returns (bool) {\r\n        if(PaymentReceived[_landId]){\r\n            return true;\r\n        }\r\n    }\r\n\r\n    function payment(address payable _receiver, uint _landId) public payable {\r\n        PaymentReceived[_landId] = true;\r\n        _receiver.transfer(msg.value);\r\n    }\r\n\r\n\r\n\r\n}\r\n",
    "sourcePath": "C:\\Users\\shrey\\Desktop\\Web_projects\\GeoBlock\\contracts\\Land.sol",
    "compiler": {
        "name": "solc",
        "version": "0.8.21+commit.d9974bed.Emscripten.clang"
    },
    "schemaVersion": "3.4.16",
    "updatedAt": "2024-05-10T22:14:03.609Z",
    "devdoc": {
        "kind": "dev",
        "methods": {},
        "version": 1
    },
    "userdoc": {
        "kind": "user",
        "methods": {},
        "version": 1
    }
}